:100000000C9434000C941A010C9451000C9451007F
:100010000C9451000C9451000C9451000C9451001C
:100020000C9451000C9451000C9451000C9451000C
:100030000C9451000C9451000C9451000C945100FC
:100040000C9451000C9451000C9451000C945100EC
:100050000C9451000C9451000C9451000C945100DC
:100060000C9451000C94510011241FBECFEFD8E026
:10007000DEBFCDBF11E0A0E0B1E0E0E7F3E002C0F9
:1000800005900D92A430B107D9F721E0A4E0B1E0CA
:1000900001C01D92A530B207E1F70E945A010C94ED
:1000A000B6010C9400000F931F938B019C0141112A
:1000B00034C060E874E88EE190E0A90198010E94E4
:1000C0007E01DA01C9010197A109B109AC01BD01A5
:1000D0007695679557954795DB01CA0188279F70EC
:1000E000AA27BB27892F9A2FAB2FBB278093C50048
:1000F0004093C40086E08093C2008091C2008F7C50
:100100008093C2008091C200877F8093C20088E004
:100110008093C1001F910F91089560E079E08DE315
:1001200090E0CBCF9091C00095FFFCCF8093C600AC
:100130000895FC012081222351F031969091C00056
:1001400095FFFCCF2093C60021912111F7CF089590
:1001500090E020E030E061E070E0AC01022E02C0EF
:10016000559547950A94E2F7F901E050FF4F40FF9B
:1001700011C04081E5B1DB0102C0AA0FBB1F4A9547
:10018000E2F7AD014E2B45B92F5F3F4F24303105CB
:1001900021F708954081E5B1DB0102C0AA0FBB1F22
:1001A0004A95E2F7AD01409550954E2345B9ECCF05
:1001B000E9E6F0E080818C7F8083E89A8FB78068E1
:1001C0008FBF089580E090E00E94A0018093040119
:1001D000809104010E94A80060E080E090E00C940F
:1001E000A801482F50E020E030E0CA01022E01C0F3
:1001F000880F0A94EAF787FF1BC091E38091C00043
:1002000085FFFCCF9093C6002F5F3F4F283031050C
:1002100061F78091C00085FFFCCF8AE08093C60023
:100220008091C00085FFFCCF8DE08093C6000895CB
:1002300090E3E4CF1F920F920FB60F9211242F93E9
:100240003F934F935F936F937F938F939F93AF935E
:10025000BF93EF93FF93809104010E94F10080917E
:1002600004018F5F809304016091040180E090E0BD
:100270000E94A801809104010E94A8002FEF84E34E
:100280009CE0215080409040E1F700C0000081E0F8
:100290008CBBFF91EF91BF91AF919F918F917F9117
:1002A0006F915F914F913F912F910F900FBE0F90E3
:1002B0001F9018951092C50098E09093C40086E0B6
:1002C0008093C2008091C2008F7C8093C200809195
:1002D000C200877F8093C2009093C1008091690023
:1002E0008C7F80936900E89A8FB780688FBF8FB743
:1002F00080688FBF80E00E94E200FFCFA1E21A2E4B
:10030000AA1BBB1BFD010DC0AA1FBB1FEE1FFF1FB9
:10031000A217B307E407F50720F0A21BB30BE40B09
:10032000F50B661F771F881F991F1A9469F7609550
:100330007095809590959B01AC01BD01CF0108950A
:10034000F999FECF92BD81BDF89A992780B508959D
:10035000262FF999FECF1FBA92BD81BD20BD0FB6E1
:10036000F894FA9AF99A0FBE01960895F894FFCF7F
:040370000001020482
:00000001FF
